:100000000C9434000C9469020C9484020C940E033A
:100010000C94DE020C94B7010C940E030C940E03A6
:100020000C940E030C94D4020C940E030C940E0347
:100030000C940E030C940E030C940E030C940E03FC
:100040000C940E030C940E030C940E030C940E03EC
:100050000C940E030060006800062A00680070809F
:10006000007000710006320011241FBECFE5D4E0FD
:10007000DEBFCDBFE4E5F0E040E017C0B591A5914B
:1000800035912591059107FD0CC095918591EF0162
:10009000F92FE82F05900D92A217B307D9F7FE01AB
:1000A00004C01D92A217B307E1F7E736F40731F752
:0C00B0000E945E000C94BF02F894FFCF89
:1000BC008FEF8ABB8AB38B7F8ABB87B3836187BB85
:1000CC0081B38F7B81BB81B3816081BB81B38B7F1B
:1000DC0081BB81B3877F81BB87B3886087BB81B3CA
:1000EC00806881BB88E683BF85BD81E489BF20E041
:1000FC0030E048EC52E460916400709165008091AE
:10010C006600909167000E94030320E030E04FE707
:10011C0053E40E9407030E9418026CBF20E030E0F9
:10012C0048EC52E460916000709161008091620033
:10013C00909163000E94030320E030E04FE753E40A
:10014C000E9407030E94180263BD1FBC8EB5806419
:10015C008EBD89B7806289BF8BB7806C8BBF85B72A
:10016C008B6085BF789483B7816083BF85B58160D0
:10017C0085BD0E94CA0280916A0090916B00813506
:10018C00910524F488B3806188BB03C088B38F7E4B
:10019C0088BB80916800909169008135910524F4A9
:1001AC0088B3816088BBE7CF88B38E7F88BBE3CFF1
:1001BC0010C00E94EF0258F00E94E80240F029F4AF
:1001CC005F3F29F00C94FD0251110C94F7020C9432
:1001DC000B030E94470268F39923B1F3552391F363
:1001EC00951B550BBB27AA2762177307840738F09A
:1001FC009F5F5F4F220F331F441FAA1FA9F335D0F7
:10020C000E2E3AF0E0E832D091505040E695001CAA
:10021C00CAF72BD0FE2F29D0660F771F881FBB1F64
:10022C00261737074807AB07B0E809F0BB0B802D42
:10023C00BF01FF2793585F4F3AF09E3F510578F06E
:10024C000C94FD020C94F7025F3FE4F3983ED4F358
:10025C00869577956795B795F7959F5FC9F7880F42
:10026C00911D9695879597F90895E1E0660F771F94
:10027C00881FBB1F621773078407BA0720F0621B25
:0E028C00730B840BBA0BEE1F88F7E0950895F4
:10029A000FC00E94E80238F00E94EF0220F0952376
:1002AA0011F00C94FD020C940B0311240C94F70228
:1002BA000E94470270F3959FC1F3950F50E0551FB6
:1002CA00629FF001729FBB27F00DB11D639FAA27A1
:1002DA00F00DB11DAA1F649F6627B00DA11D661FF0
:1002EA00829F2227B00DA11D621F739FB00DA11D11
:1002FA00621F839FA00D611D221F749F3327A00DCB
:10030A00611D231F849F600D211D822F762F6A2F66
:10031A0011249F5750409AF0F1F088234AF0EE0FCB
:10032A00FF1FBB1F661F771F881F91505040A9F7F8
:10033A009E3F510580F00C94FD020C94F7025F3F3A
:10034A00E4F3983ED4F3869577956795B795F79534
:10035A00E7959F5FC1F7FE2B880F911D96958795AC
:04036A0097F9089562
:10036E001F920F920FB60F9211242F933F934F931C
:10037E005F936F937F938F939F93AF93BF93EF93FF
:10038E00FF9380917000882349F08EB58F7B8EBDD0
:10039E008EB581608EBD1092700032C086B597B555
:1003AE0090936F0080936E008EB580648EBD81E059
:1003BE00809370008EB58E7F8EBD1DBC1CBC2091AF
:1003CE006E0030916F00AFE9B6E40E94B0029295D4
:1003DE0082958F7089279F70892790936D008093E7
:1003EE006C000E94CA0280916C0090916D0044973F
:1003FE0020F48BB381608BBB03C08BB38E7F8BBB22
:10040E00FF91EF91BF91AF919F918F917F916F91DE
:10041E005F914F913F912F910F900FBE0F901F90B4
:02042E0018951F
:100430000E944F0288F09F5798F0B92F9927B75123
:10044000B0F0E1F0660F771F881F991F1AF0BA9578
:10045000C9F714C0B13091F00E94F602B1E00895DE
:100460000C94F602672F782F8827B85F39F0B93FD0
:10047000CCF3869577956795B395D9F73EF490952B
:0E0480008095709561957F4F8F4F9F4F089527
:10048E0057FD9058440F551F59F05F3F71F0479537
:10049E00880F97FB991F61F09F3F79F0879508951C
:1004AE00121613061406551FF2CF4695F1DF08C03B
:1004BE00161617061806991FF1CF86957105610558
:0404CE0008940895F1
:1004D2001F920F920FB60F9211248F939F939BB38B
:1004E20080E489278BBB80916A0090916B00019612
:1004F20090936B0080936A009F918F910F900FBE33
:060502000F901F901895F8
:100508001F920F920FB60F9211248F939F939BB354
:1005180080E189278BBB80916800909169000196E2
:1005280090936900809368009F918F910F900FBE00
:060538000F901F901895C2
:10053E00092E0394000C11F4882352F0BB0F40F4E3
:10054E00BF2B11F460FF04C06F5F7F4F8F4F9F4F23
:02055E000895FE
:10056000A29FB001B39FC001A39F700D811D1124F4
:0E057000911DB29F700D811D1124911D0895E3
:10057E00EC010E9413030E941203CE010E94140389
:06058E00CE010E941003E3
:1005940082B3816082BB85E08A95F1F782B38E7F56
:0405A40082BB089579
:1005A8001F920F920FB60F9211240F900FBE0F904B
:0405B8001F901895E3
:1005BC001F920F920FB60F9211240F900FBE0F9037
:0405CC001F901895CF
:0E05D00000240A941616170618060906089548
:0E05DE0000240A94121613061406050608954A
:0E05EC00E894BB2766277727CB0197F908957F
:0C05FA0097F99F6780E870E060E00895CA
:080606000E94DE000C949F022B
:08060E000E944D010C949F02B3
:060616009FEF80EC089547
:04061C000C9400003A
:040620000E945C00D8
:02062400089537
:02062600089535
:02062800089533
:04062A0000009E42EC
:04062E000000A042E6
:0106320001C6
:00000001FF
