:100000000C942D000C9457000C940C010C940C01D2
:100010000C940C010C940C010C940C010C940C012C
:100020000C940C010C940C010C940C010C940C011C
:100030000C940C010C940C010C940C010C940C010C
:100040000C940C010C940C010C940C010C940C01FC
:100050000C940C0100600063800011241FBECFE5EA
:10006000D4E0DEBFCDBFE4E5F0E040E017C0B591DD
:10007000A59135912591059107FD0CC0959185912C
:10008000EF01F92FE82F05900D92A217B307D9F7CA
:10009000FE0104C01D92A217B307E1F7E935F4078A
:0E00A00031F70E949D000C940101F894FFCFEF
:1000AE001F920F920FB60F9211242F933F936F93BF
:1000BE007F938F939F93AF93BF9380916200813014
:1000CE00F1F41EBC2CB53DB5AFE9B6E40E94F200CA
:1000DE00929582958F7089279F70892790936100E2
:1000EE00809360001DBC1CBC1092620082B38160C4
:1000FE0082BB85E08A95F1F782B38E7F82BB8091B9
:10010E006200811106C08EB581608EBD81E0809344
:10011E006200BF91AF919F918F917F916F913F91AF
:0C012E002F910F900FBE0F901F9018959E
:10013A0091E09ABB87B38F6087BB91BB81B38B7FFA
:10014A0081BB1BBA8BB780648BBF85B7816085BFC3
:10015A001FBC789482B3816082BB85E08A95F1F7EF
:10016A0082B38E7F82BB80916000909161000A9772
:10017A0054F48BB381608BBB87EA91E60197F1F760
:10018A0000C00000F0CF8BB38E7F8BBB87EA91E66D
:0E019A000197F1F700C000000E94D400E4CFEE
:1001A80090E019C088B3816088BB88B3886088BB39
:1001B800E3ECF9E03197F1F700C0000088B38E7FD7
:1001C80088BB88B3877F88BBE7E8F3E13197F1F70D
:0C01D80000C000009F5F943628F30895DB
:1001E400A29FB001B39FC001A39F700D811D112474
:0E01F400911DB29F700D811D1124911D089563
:10020200EC010E9411010E941001CE010E94120114
:06021200CE010E940E0166
:040218000C94000042
:04021C000E945500E7
:0202200008953F
:0202220008953D
:0202240008953B
:00000001FF
