:100000000C9439000C942F0F0C944A0F0C944E1042
:100010000C94FC0F0C94FE0A0C944E100C944E1091
:100020000C944E100C94F20F0C944E100C944E1035
:100030000C944E100C944E100C944E100C944E10C8
:100040000C944E100C944E100C944E100C944E10B8
:100050000C944E10006001D28001D201E20020AE6B
:1000600001E201E88001E801EC0020BE01EC01F0B2
:10007000800011241FBECFE5D4E0DEBFCDBFE4E594
:10008000F0E040E017C0B591A5913591259105911B
:1000900007FD0CC095918591EF01F92FE82F059090
:1000A0000D92A217B307D9F7FE0104C01D92A21743
:1000B000B307E1F7E137F40731F70E9451090C94D7
:0600C000DD0FF894FFCFF4
:1000C600AF92BF92CF92DF92EF92FF921F93CF93A0
:1000D600DF93182FCBEA8C9FC12D1124C695C695A8
:1000E6009C2F990F9C0F892F880FD12FD81B111188
:1000F60073C0EC2EF12CCD2ED12C56018FEFA81A01
:10010600B80AF501EE0FFF1FEA0DFB1DEE0FFF1FEC
:1001160024E22E9DC0012F9D900D1124E80FF91F9A
:10012600EC56FF4F848181508230F0F061E06D0F14
:100136008C2F0E94650F811117C0C501880F991F6A
:10014600A80EB91EAA0CBB1C84E28E9DF0018F9DE1
:10015600F00D1124EA0DFB1DEC56FF4F1383812F82
:1001660090E001960E94C40F8FEFE81AF80AF60194
:10017600EE0FFF1FEC0DFD1DEE0FFF1F24E22E9D5F
:10018600C0012F9D900D1124E80FF91FEC56FF4F6B
:1001960084818150823008F417C56D2F81E08C0F61
:1001A6000E94650F811110C5C601880F991FC80EE0
:1001B600D91ECC0CDD1C84E28E9DF0018F9DF00DC6
:1001C6001124EC0DFD1DEC56FF4F1383812F90E09B
:1001D60006960E94C40FF8C4153009F073C0EC2EC1
:1001E600F12CCD2ED12C560181E0A81AB108F501CB
:1001F600EE0FFF1FEA0DFB1DEE0FFF1F24E22E9DE3
:10020600C0012F9D900D1124E80FF91FEC56FF4FEA
:10021600848181508230F0F06FEF6D0F8C2F0E9439
:10022600650F811117C0C501880F991FA80EB91E49
:10023600AA0CBB1C84E28E9DF0018F9DF00D11244B
:10024600EA0DFB1DEC56FF4F1383812F90E00197BB
:100256000E94C40F8FEFE81AF80AF601EE0FFF1F8F
:10026600EC0DFD1DEE0FFF1F24E22E9DC0012F9DFC
:10027600900D1124E80FF91FEC56FF4F8481815031
:10028600823008F4A1C46D2F81E08C0F0E94650FA7
:1002960081119AC4C601880F991FC80ED91ECC0CAD
:1002A600DD1C84E28E9DF0018F9DF00D1124EC0D76
:1002B600FD1DEC56FF4F1383812F90E006960E949A
:1002C600C40F82C41E3109F073C0EC2EF12CCD2E62
:1002D600D12C56018FEFA81AB80AF501EE0FFF1FB1
:1002E600EA0DFB1DEE0FFF1F24E22E9DC0012F9D80
:1002F600900D1124E80FF91FEC56FF4F84818150B1
:100306008230F0F061E06D0F8C2F0E94650F811135
:1003160017C0C501880F991FA80EB91EAA0CBB1CD1
:1003260084E28E9DF0018F9DF00D1124EA0DFB1DD8
:10033600EC56FF4F1383812F90E001960E94C40F65
:1003460081E0E81AF108F601EE0FFF1FEC0DFD1D26
:10035600EE0FFF1F24E22E9DC0012F9D900D11244C
:10036600E80FF91FEC56FF4F84818150823008F464
:100376002BC46D2F8FEF8C0F0E94650F811124C443
:10038600C601880F991FC80ED91ECC0CDD1C84E24D
:100396008E9DF0018F9DF00D1124EC0DFD1DEC5688
:1003A600FF4F1383812F90E006970E94C40F0CC461
:1003B600133209F073C0EC2EF12CCD2ED12C560140
:1003C60081E0A81AB108F501EE0FFF1FEA0DFB1D2B
:1003D600EE0FFF1F24E22E9DC0012F9D900D1124CC
:1003E600E80FF91FEC56FF4F848181508230F0F000
:1003F6006FEF6D0F8C2F0E94650F811117C0C5011D
:10040600880F991FA80EB91EAA0CBB1C84E28E9DEC
:10041600F0018F9DF00D1124EA0DFB1DEC56FF4FE8
:100426001383812F90E006970E94C40F81E0E81A9B
:10043600F108F601EE0FFF1FEC0DFD1DEE0FFF1F7D
:1004460024E22E9DC0012F9D900D1124E80FF91F67
:10045600EC56FF4F84818150823008F4B5C36D2F6E
:100466008FEF8C0F0E94650F8111AEC3C601880FF6
:10047600991FC80ED91ECC0CDD1C84E28E9DF0019E
:100486008F9DF00D1124EC0DFD1DEC56FF4F1383CF
:10049600812F90E001970E94C40F96C38FEF810FC2
:1004A600843008F0AAC0EC2EF12CCD2ED12C5601AA
:1004B60081E0A81AB108F501EE0FFF1FEA0DFB1D3A
:1004C600EE0FFF1F24E22E9DC0012F9D900D1124DB
:1004D600E80FF91FEC56FF4F848181508230F0F00F
:1004E6006FEF6D0F8C2F0E94650F811117C0C5012C
:1004F600880F991FA80EB91EAA0CBB1C84E28E9DFC
:10050600F0018F9DF00D1124EA0DFB1DEC56FF4FF7
:100516001383812F90E001970E94C40F56018FEF3D
:10052600A81AB80AF501EE0FFF1FEA0DFB1DEE0F24
:10053600FF1F24E22E9DC0012F9D900D1124E80F70
:10054600F91FEC56FF4F848181508230F0F061E054
:100556006D0F8C2F0E94650F811117C0C501880F82
:10056600991FA80EB91EAA0CBB1C84E28E9DF00131
:100576008F9DF00D1124EA0DFB1DEC56FF4F1383E2
:10058600812F90E001960E94C40F8FEFE81AF80AB7
:10059600F601EE0FFF1FEC0DFD1DEE0FFF1F24E20F
:1005A6002E9DC0012F9D900D1124E80FF91FEC56CA
:1005B600FF4F84818150823008F406C36D2F81E09D
:1005C6008C0F0E94650F8111FFC2C601880F991F0B
:1005D600C80ED91ECC0CDD1C84E28E9DF0018F9DC9
:1005E600F00D1124EC0DFD1DEC56FF4F1383812FEA
:1005F60090E006960E94C40FE7C2D111AAC0CC2E85
:10060600D12C560181E0A81AB108ED2EF12CF70184
:10061600EE0FFF1FEE0DFF1DEE0FFF1F24E22A9DBA
:10062600C0012B9D900D1124E80FF91FEC56FF4FCA
:10063600848181508230F0F06D2F8FEF8C0F0E94F5
:10064600650F811117C0F701EE0FFF1FEE0DFF1D9D
:10065600EE0FFF1F24E22A9DC0012B9D900D112451
:10066600E80FF91FEC56FF4F1383812F90E0069792
:100676000E94C40F57018FEFA81AB80AF501EE0FB2
:10068600FF1FEA0DFB1DEE0FFF1F24E22C9DC0018C
:100696002D9D900D1124E80FF91FEC56FF4F848114
:1006A60081508230F0F061E06D0F8C2F0E94650F53
:1006B600811117C0C501880F991FA80EB91EAA0C73
:1006C600BB1C84E28C9DF0018D9DF00D1124EA0D7A
:1006D600FB1DEC56FF4F1383812F90E001960E947D
:1006E600C40F8FEFC81AD80AF701EE0FFF1FEE0DE1
:1006F600FF1DEE0FFF1F24E22C9DC0012D9D900DC6
:100706001124E80FF91FEC56FF4F84818150823087
:1007160008F45AC26D2F81E08C0F0E94650F81117B
:1007260053C2C701880F991FE80EF91EEE0CFF1C75
:1007360084E28C9DF0018D9DF00D1124EE0DFF1DC0
:10074600EC56FF4F1383812F90E006960E94C40F4C
:100756003BC2D53009F0AAC0CC2ED12C560181E07F
:10076600A81AB108ED2EF12CF701EE0FFF1FEE0DC2
:10077600FF1DEE0FFF1F24E22A9DC0012B9D900D49
:100786001124E80FF91FEC56FF4F84818150823007
:10079600F0F06D2F8FEF8C0F0E94650F811117C03F
:1007A600F701EE0FFF1FEE0DFF1DEE0FFF1F24E2F8
:1007B6002A9DC0012B9D900D1124E80FF91FEC56C0
:1007C600FF4F1383812F90E006970E94C40F5701B5
:1007D60081E0A81AB108F501EE0FFF1FEA0DFB1D17
:1007E600EE0FFF1F24E22C9DC0012D9D900D1124BC
:1007F600E80FF91FEC56FF4F848181508230F0F0EC
:100806006FEF6D0F8C2F0E94650F811117C0C50108
:10081600880F991FA80EB91EAA0CBB1C84E28C9DDA
:10082600F0018D9DF00D1124EA0DFB1DEC56FF4FD6
:100836001383812F90E001970E94C40F8FEFC81A8F
:10084600D80AF701EE0FFF1FEE0DFF1DEE0FFF1F7B
:1008560024E22C9DC0012D9D900D1124E80FF91F57
:10086600EC56FF4F84818150823008F4ADC16D2F64
:1008760081E08C0F0E94650F8111A6C1C701880F08
:10088600991FE80EF91EEE0CFF1C84E28C9DF00108
:100896008D9DF00D1124EE0DFF1DEC56FF4F1383B9
:1008A600812F90E006960E94C40F8EC181EE810FC3
:1008B600843008F0AAC0CC2ED12C560181E0A81AAB
:1008C600B108ED2EF12CF701EE0FFF1FEE0DFF1D07
:1008D600EE0FFF1F24E22A9DC0012B9D900D1124CF
:1008E600E80FF91FEC56FF4F848181508230F0F0FB
:1008F6006D2F8FEF8C0F0E94650F811117C0F701C6
:10090600EE0FFF1FEE0DFF1DEE0FFF1F24E22A9DC7
:10091600C0012B9D900D1124E80FF91FEC56FF4FD7
:100926001383812F90E006970E94C40F570181E040
:10093600A81AB108F501EE0FFF1FEA0DFB1DEE0F19
:10094600FF1F24E22C9DC0012D9D900D1124E80F60
:10095600F91FEC56FF4F848181508230F0F06FEF23
:100966006D0F8C2F0E94650F811117C0C501880F6E
:10097600991FA80EB91EAA0CBB1C84E28C9DF0011F
:100986008D9DF00D1124EA0DFB1DEC56FF4F1383D0
:10099600812F90E001970E94C40F8FEFE81AF80AA2
:1009A600F701EE0FFF1FEE0DFF1DEE0FFF1F24E2F6
:1009B6002C9DC0012D9D900D1124E80FF91FEC56BA
:1009C600FF4F84818150823008F4FEC061E06D0FD4
:1009D6008C2F0E94650F8111F7C0C701880F991FE0
:1009E600E80EF91EEE0CFF1C84E28C9DF0018D9D35
:1009F600F00D1124EE0DFF1DEC56FF4F1383812FD2
:100A060090E001960E94C40FDFC0CC2ED12C560177
:100A160081E0A81AB108ED2EF12CF701EE0FFF1FA9
:100A2600EE0DFF1DEE0FFF1F24E22A9DC0012B9D38
:100A3600900D1124E80FF91FEC56FF4F8481815069
:100A46008230F0F06D2F8FEF8C0F0E94650F8111B1
:100A560017C0F701EE0FFF1FEE0DFF1DEE0FFF1F74
:100A660024E22A9DC0012B9D900D1124E80FF91F49
:100A7600EC56FF4F1383812F90E006970E94C40F18
:100A8600570181E0A81AB108F501EE0FFF1FEA0D24
:100A9600FB1DEE0FFF1F24E22C9DC0012D9D900D26
:100AA6001124E80FF91FEC56FF4F848181508230E4
:100AB600F0F06FEF6D0F8C2F0E94650F811117C03C
:100AC600C501880F991FA80EB91EAA0CBB1C84E28B
:100AD6008C9DF0018D9DF00D1124EA0DFB1DEC5649
:100AE600FF4F1383812F90E001970E94C40F570197
:100AF6008FEFA81AB80AF501EE0FFF1FEA0DFB1DCE
:100B0600EE0FFF1F24E22C9DC0012D9D900D112498
:100B1600E80FF91FEC56FF4F848181508230F0F0C8
:100B260061E06D0F8C2F0E94650F811117C0C50102
:100B3600880F991FA80EB91EAA0CBB1C84E28C9DB7
:100B4600F0018D9DF00D1124EA0DFB1DEC56FF4FB3
:100B56001383812F90E001960E94C40F8FEFC81A6D
:100B6600D80AF701EE0FFF1FEE0DFF1DEE0FFF1F58
:100B760024E22C9DC0012D9D900D1124E80FF91F34
:100B8600EC56FF4F848181508230F0F06D2F81E06A
:100B96008C0F0E94650F811117C0C701880F991F1E
:100BA600E80EF91EEE0CFF1C84E28C9DF0018D9D73
:100BB600F00D1124EE0DFF1DEC56FF4F1383812F10
:100BC60090E006960E94C40FDF91CF911F91FF908F
:0C0BD600EF90DF90CF90BF90AF9008959B
:100BE2000F931F93CF93DF93809160002BEA829F34
:100BF200212D112426952695922F990F920F392F88
:100C0200330F831B90E0FC01EE0FFF1FE80FF91F6B
:100C1200EE0FFF1F34E2239FE00DF11D1124EC566D
:100C2200FF4F038110E00BC2C12FD0E0FE01E05A5A
:100C3200FF4F30814BEA349F412D11244695469552
:100C4200842F880F840F982F990F232F291B8FE948
:100C520096E831E0815090403040E1F700C000005A
:100C6200808190E030E0F901EE0FFF1FE20FF31FE9
:100C7200EE0FFF1F24E2429FE00DF11D1124EC56FE
:100C8200FF4F238130E0A9014A5F5F4F8417950728
:100C9200A9F46091EB01613089F48091EF01813018
:100CA20031F470E0802F90E00E943108CEC10E94A2
:100CB2002E0CC05ADF4F08811F5FC1C1B9016F5F9F
:100CC2007F4F86179707D9F4E091EB01E130B9F431
:100CD2000E94650D83E08093EB018091EF018130EA
:100CE20039F463E070E0802F90E00E943108ADC1DA
:100CF2000E942E0CC05ADF4F08811F5FA0C1F9016C
:100D020031978E179F07D9F4A091EB01A130B9F466
:100D12000E94230D84E08093EB018091EF018130EA
:100D220039F464E070E0802F90E00E9431088DC1B8
:100D32000E942E0CC05ADF4F08811F5F80C12650CF
:100D4200310982179307E9F4A091EB01A130C9F4AC
:100D52000E94230D0E94230D82E08093EB0180917B
:100D6200EF01813039F462E070E0802F90E00E9460
:100D720031086BC10E942E0CC05ADF4F08811F5FE1
:100D82005EC182179307B1F4A091EB01A23091F4F6
:100D92008091EF01813039F46A2F70E0802F90E06A
:100DA2000E94310852C10E942E0CC05ADF4F0881A6
:100DB2001F5F45C186179707D9F4A091EB01A230B6
:100DC200B9F40E94230D83E08093EB018091EF013F
:100DD200813039F463E070E0802F90E00E943108A6
:100DE20034C10E942E0CC05ADF4F08811F5F27C1F9
:100DF2008E179F07D9F4A091EB01A230B9F40E949B
:100E0200650D84E08093EB018091EF01813039F42C
:100E120064E070E0802F90E00E94310816C10E94C9
:100E22002E0CC05ADF4F08811F5F09C18417950736
:100E3200E9F4A091EB01A230C9F40E94230D0E94B3
:100E4200230D81E08093EB018091EF01813039F431
:100E520061E070E0802F90E00E943108F6C00E94AD
:100E62002E0CC05ADF4F08811F5FE9C08617970713
:100E7200B1F4A091EB01A33091F48091EF018130A4
:100E820039F46A2F70E0802F90E00E943108DDC0B3
:100E92000E942E0CC05ADF4F08811F5FD0C08417FA
:100EA2009507D9F4A091EB01A330B9F40E94230D68
:100EB20081E08093EB018091EF01813039F461E0B0
:100EC20070E0802F90E00E943108BFC00E942E0C7B
:100ED200C05ADF4F08811F5FB2C082179307D9F44F
:100EE200A091EB01A330B9F40E94650D82E08093DA
:100EF200EB018091EF01813039F462E070E0802FE4
:100F020090E00E943108A1C00E942E0CC05ADF4F0F
:100F120008811F5F94C08E179F07E9F4A091EB012F
:100F2200A330C9F40E94230D0E94230D84E0809314
:100F3200EB018091EF01813039F464E070E0802FA1
:100F420090E00E94310881C00E942E0CC05ADF4FEF
:100F520008811F5F74C08E179F07B1F4E091EB0107
:100F6200E43091F48091EF01813039F46E2F70E01A
:100F7200802F90E00E94310868C00E942E0CC05A57
:100F8200DF4F08811F5F5BC082179307D9F420915E
:100F9200EB012430B9F40E94230D82E08093EB012F
:100FA2008091EF01813039F462E070E0802F90E0AF
:100FB2000E9431084AC00E942E0CC05ADF4F08819D
:100FC2001F5F3DC084179507D9F42091EB012430AF
:100FD200B9F40E94650D81E08093EB018091EF01ED
:100FE200813039F461E070E0802F90E00E94310896
:100FF2002CC00E942E0CC05ADF4F08811F5F1FC0F9
:1010020086179707E1F48091EB018430C1F40E94C6
:10101200230D0E94230D83E08093EB018091EF0169
:10102200813039F463E070E0802F90E00E94310853
:101032000CC00E942E0CC05ADF4F08811F5F802F08
:101042000E94D20F882309F4EFCD00939300809180
:10105200EB0180939E01DF91CF911F910F91089533
:10106200CF93DF9370E051C09BEA799F912D1124B9
:1010720096959695A92FB0E0292F220F920F292F2E
:10108200220F972F921B292F30E0F901EE0FFF1F3D
:10109200E20FF31FEE0FFF1F94E29A9FA0019B9FA6
:1010A200500D1124E40FF51FEC56FF4F948191303F
:1010B20061F4F901EE0FFF1FE20FF31FEE0FFF1FA6
:1010C200E40FF51FEC56FF4F1482E901CC0FDD1F30
:1010D200FE01E20FF31FEE0FFF1F94E29A9FA001A1
:1010E2009B9F500D1124E40FF51FEC56FF4F108209
:1010F200118212822C0F3D1F220F331F240F351F26
:10110200F901EC56FF4F13827F5F743208F4ACCFC3
:101112009BEA899F412D112446954695242F220F43
:10112200240F322F330F282F231B30E0F901EE0F4B
:10113200FF1FE20FF31FEE0FFF1F54E2549FE00D5B
:10114200F11D1124EC56FF4F21E024832091D1019F
:10115200299F912D112496959695392F330F390F8A
:10116200432F440F241B30E0F901EE0FFF1FE20F63
:10117200F31FEE0FFF1F599FE00DF11D1124EC56D6
:10118200FF4F93E094836130D9F490E0069666E0D5
:1011920070E00E947C0F9C01220F331F820F931F6D
:1011A200880F991F24E2269FF001279FF00D11243A
:1011B2008E0F9F1FFC01EC56FF4F82E0848356C0C6
:1011C2006230D9F490E0069766E070E00E947C0FEE
:1011D2009C01220F331F820F931F880F991F24E255
:1011E200269FF001279FF00D11248E0F9F1FFC01F7
:1011F200EC56FF4F82E0848339C06330D9F490E02B
:10120200019666E070E00E947C0F9C01220F331F62
:10121200820F931F880F991F24E2269FF001279FB8
:10122200F00D11248E0F9F1FFC01EC56FF4F82E040
:1012320084831CC06430D1F490E0019766E070E0D2
:101242000E947C0F9C01220F331F820F931F880F75
:10125200991F24E2269FF001279FF00D11248E0F83
:101262009F1FFC01EC56FF4F82E084831092EE0137
:101272001092ED0120E00FC0822F90E0FC01E156B8
:10128200FE4F1082FC01E459FE4F1082FC01E05A2D
:10129200FF4F10822F5F223378F3DF91CF910895B1
:1012A2008FEF8ABB8AB384608ABB8AB38F708ABB92
:1012B20087B3836187BB81B38F7B81BB81B381603D
:1012C20081BB81B38B7F81BB81B3877F81BB87B3B6
:1012D200886087BB81B3806881BB88E683BF85BD98
:1012E20081E489BF20E030E048EC52E46091D6010D
:1012F2007091D7018091D8019091D9010E94431039
:1013020020E030E04FE753E40E9447100E94400E75
:101312006CBF20E030E048EC52E46091D201709161
:10132200D3018091D4019091D5010E94431020E015
:1013320030E04FE753E40E9447100E94400E63BD25
:101342001FBC8EB580648EBD89B7806289BF8BB7A2
:10135200806C8BBF85B78B6085BF14BA0E94061064
:101362000E946F0E0E940E108091920090E00E94E7
:10137200FB09789483B7816083BF85B5816085BDA1
:101382000E94E80F8091EC010E94D20F811103C0EC
:101392000E941610F7CF8091EC010E94D20F882391
:1013A20089F30E94D30B2FE382E49FE02150804017
:1013B2009040E1F700C000006091EB0170E0809185
:1013C200EC0190E00E94F105809193008093EC0182
:1013D20090919E019093EB010E94D20F882391F28B
:1013E2002FE382E49FE0215080409040E1F700C06B
:0413F2000000E2CF46
:1013F600CF93DF93A0E08BC06A2F70E0492F50E0B7
:10140600FA01EE0FFF1FE40FF51FEE0FFF1FB4E208
:10141600B69F9001B79F300D1124E20FF31FEC56D3
:10142600FF4F2581281321C0EA01CC0FDD1FFE01E5
:10143600E40FF51FEE0FFF1FB69F9001B79F300D0B
:101446001124E20FF31FEC56FF4F63E06483FE01A5
:10145600E40FF51FEE0FFF1F2E0F3F1FF901EC568D
:10146600FF4F25812093D1014BC03091EC0123130E
:1014760014C0FA01EE0FFF1FE40FF51FEE0FFF1F5A
:1014860044E2469F9001479F300D1124E20FF31F5F
:10149600EC56FF4F21E0248333C0243051F02A302C
:1014A60041F0203131F0263121F02C3111F0223279
:1014B600A1F4FA01EE0FFF1FE40FF51FEE0FFF1F59
:1014C60044E2469F9001479F300D1124E20FF31F1F
:1014D600EC56FF4F22E0248313C09A01220F331FDC
:1014E600420F531F440F551F24E2269FF001279FEA
:1014F600F00D11244E0F5F1FFA01EC56FF4F1482B8
:101506009F5F01C090E0963008F476CFAF5FA630BB
:08151600C8F3DF91CF910895A5
:10151E0010C00E94251058F00E941E1040F029F4B1
:10152E005F3F29F00C94331051110C942D100C9434
:10153E004B100E940D0F68F39923B1F3552391F3CD
:10154E00951B550BBB27AA2762177307840738F024
:10155E009F5F5F4F220F331F441FAA1FA9F335D081
:10156E000E2E3AF0E0E832D091505040E695001C35
:10157E00CAF72BD0FE2F29D0660F771F881FBB1FEF
:10158E00261737074807AB07B0E809F0BB0B802DCD
:10159E00BF01FF2793585F4F3AF09E3F510578F0F9
:1015AE000C9433100C942D105F3FE4F3983ED4F35B
:1015BE00869577956795B795F7959F5FC9F7880FCD
:1015CE00911D9695879597F90895E1E0660F771F1F
:1015DE00881FBB1F621773078407BA0720F0621BB0
:0E15EE00730B840BBA0BEE1F88F7E09508957F
:1015FC001F920F920FB60F9211242F933F934F937C
:10160C005F936F937F938F939F93AF93BF93EF935E
:10161C00FF938091EA01882349F08EB58F7B8EBDB4
:10162C008EB581608EBD1092EA013CC086B597B52F
:10163C009093E3018093E2018EB580648EBD81E0CE
:10164C008093EA018EB58E7F8EBD1DBC1CBC209193
:10165C00E2013091E301AFE9B6E40E94B50F929537
:10166C0082958F7089279F7089279093E1018093D1
:10167C00E0010E94E80F2091E0013091E10180919E
:10168C00DE019091DF012817390738F481E080934F
:10169C00EF018BB381608BBB05C01092EF018BB354
:1016AC008E7F8BBBFF91EF91BF91AF919F918F91EB
:1016BC007F916F915F914F913F912F910F900FBE42
:0616CC000F901F9018951D
:1016D2000FC00E941E1038F00E94251020F09523A2
:1016E20011F00C9433100C944B1011240C942D1007
:1016F2000E940D0F70F3959FC1F3950F50E0551F97
:10170200629FF001729FBB27F00DB11D639FAA2754
:10171200F00DB11DAA1F649F6627B00DA11D661FA3
:10172200829F2227B00DA11D621F739FB00DA11DC4
:10173200621F839FA00D611D221F749F3327A00D7E
:10174200611D231F849F600D211D822F762F6A2F1A
:1017520011249F5750409AF0F1F088234AF0EE0F7F
:10176200FF1FBB1F661F771F881F91505040A9F7AC
:101772009E3F510580F00C9433100C942D105F3F66
:10178200E4F3983ED4F3869577956795B795F795E8
:10179200E7959F5FC1F7FE2B880F911D9695879560
:0417A20097F9089516
:1017A600A1E02EC0E32FF0E0E459FE4F60812BEA62
:1017B600629F212D112426952695822F880F820F50
:1017C600982F990F862F891B90E0FC01EE0FFF1FC3
:1017D600E80FF91FEE0FFF1F84E2289FE00DF11DB1
:1017E6001124EC56FF4F8081A81304C0FA01E15A78
:1017F600FF4F60833F5F01C030E0371798F2AF5F5D
:101806004A2F50E07091ED01E72FF0E0E559FE4FC9
:1018160080812BEA829F212D112426952695922FD1
:10182600990F920F392F330F831B90E0FC01EE0FB7
:10183600FF1FE80FF91FEE0FFF1F84E2289FE00D40
:10184600F11D1124EC56FF4F808190E00196481758
:06185600590794F2089509
:10185C00CF92DF92EF92FF921092E7011092E60185
:10186C001092E5011092E40112C088B3816088BB2C
:10187C0088B3806188BB87EA91E60197F1F700C0D5
:10188C00000088B38F7E88BB88B38E7F88BB609145
:10189C00E6017091E701072E000C880B990B0E9452
:1018AC00A60DC090DA01D090DB01E090DC01F09045
:1018BC00DD01A70196010E943910181694F0609171
:1018CC00E4017091E501072E000C880B990B0E9426
:1018DC00A60D9B01AC01C701B6010E943E108823E6
:1018EC0024F69FE32DE083E0915020408040E1F707
:0E18FC0000C00000FF90EF90DF90CF900895A5
:10190A0080919F019BEA899F912D11249695969526
:10191A00292F220F290F322F330F282F231B30E0B4
:10192A00F901EE0FFF1FE20FF31FEE0FFF1F24E274
:10193A00929FE00DF11D1124EC56FF4F728140E099
:10194A002DC0E42FF0E0E156FE4F60819BEA699FCB
:10195A00912D112496959695292F220F290F322F12
:10196A00330F562F531B252F30E0F901EE0FFF1FBF
:10197A00E20FF31FEE0FFF1F24E2929FE00DF11D0D
:10198A001124EC56FF4F2281721738F0892F880FE5
:10199A00980F892F880F850F722F4F5F9091EE0154
:0619AA00491778F20895D0
:1019B0009F92AF92BF92CF92DF92EF92FF920F93DE
:1019C0001F93CF93DF93CBEA8C9FC12D1124C69533
:1019D000C6959C2F990F9C0F292F220FD82FD21B11
:1019E0004091D1016D2F8C2F0E94EA0E982ECD2EA2
:1019F000D12C5601AA0CBB1C85010C0D1D1D000F1E
:101A0000111F84E2C89F700111240E0D1F1D0C567A
:101A10001F4FF80191826D2F8C2F0E94110EF8013B
:101A20008083682F892D0E945010F8018283DF91F6
:101A3000CF911F910F91FF90EF90DF90CF90BF90CB
:061A4000AF909F90089595
:101A46001092E7011092E6011092E5011092E4016E
:101A560087EA91E60197F1F700C0000006C088B357
:101A6600806188BB88B3826088BB8091E8019091D1
:101A7600E901AC014F5F5F4F2091E6013091E7012C
:101A86004217530764F72091E4013091E50182176C
:101A960093072CF788B38F7E88BB88B38D7F88BB6E
:101AA6001092E7011092E6011092E5011092E4010E
:101AB6009FE32DE083E0915020408040E1F700C095
:041AC600000008957F
:101ACA001092E7011092E6011092E5011092E401EA
:101ADA0087EA91E60197F1F700C0000006C088B3D3
:101AEA00816088BB8BB384608BBB2091E601309107
:101AFA00E7018091E8019091E901821793077CF749
:101B0A002091E4013091E5018217930744F788B3E5
:101B1A008E7F88BB8BB38B7F8BBB1092E7011092B1
:101B2A00E6011092E5011092E4019FE32DE083E0C3
:0E1B3A00915020408040E1F700C00000089567
:101B4800E89409C097FB3EF490958095709561954F
:101B58007F4F8F4F9F4F9923A9F0F92F96E9BB2705
:101B68009395F695879577956795B795F111F8CF81
:101B7800FAF4BB0F11F460FF1BC06F5F7F4F8F4FEC
:101B88009F4F16C0882311F096E911C0772321F0E2
:101B98009EE8872F762F05C0662371F096E8862F7A
:101BA80070E060E02AF09A95660F771F881FDAF7D1
:0A1BB800880F9695879597F9089518
:101BC2000E94850CE091ED0191E09E0F9093ED0152
:101BD200F0E0E459FE4F80839BEA899F912D112406
:101BE20096959695292F220F290F322F330F282FE2
:101BF200231B30E0F901EE0FFF1FE20FF31FEE0F80
:101C0200FF1F24E2929FE00DF11D1124EC56FF4FBD
:101C120091E094838093EC0190E00E949D0E0895E0
:101C220070E09B01220F331F620F731F660F771F35
:101C320034E2389F600D711D1124FB01EC56FF4FF9
:101C420043812BEA429F212D112426952695822F2E
:101C5200880F820F982F990F842F891B90E0FC0127
:101C6200EE0FFF1FE80FF91FEE0FFF1F329FE00D6F
:0E1C7200F11D1124EC56FF4F80818F5F089505
:101C80000E94150F88F09F5798F0B92F9927B751E8
:101C9000B0F0E1F0660F771F881F991F1AF0BA9510
:101CA000C9F714C0B13091F00E942C10B1E0089532
:101CB0000C942C10672F782F8827B85F39F0B93F24
:101CC000CCF3869577956795B395D9F73EF49095C3
:0E1CD0008095709561957F4F8F4F9F4F0895BF
:101CDE00A0E050E028C0842F90E0BC01660F771F73
:101CEE00FB01E80FF91FEE0FFF1FB4E2AB9F90014F
:101CFE001124E20FF31FEC56FF4F5583148213820B
:101D0E0011821082860F971F880F991F820F931FC3
:101D1E00FC01EC56FF4F12825F5F4F5F01C040E047
:0C1D2E004630C8F2AF5FA630D0F3089535
:101D3A0090E018C0F901E156FE4F4081481309C0EE
:101D4A00F901E056FE4F4081F901E156FE4F40830A
:101D5A0008C0F901E056FE4F4081F901E156FE4FF5
:101D6A0040839F5F292F30E06091EE01462F50E0BB
:101D7A004E51510924173507ECF261506093EE0178
:021D8A000895BA
:101D8C00990F0008550FAA0BE0E8FEEF1616170680
:101D9C00E807F907C0F012161306E407F50798F0E8
:101DAC00621B730B840B950B39F40A2661F0232B01
:101DBC00242B252B21F408950A2609F4A140A6957D
:081DCC008FEF811D811D0895B8
:101DD4009BEA499F912D112496959695292F220FC0
:101DE400290F322F330F542F531B282F30E0291B78
:101DF4003109C901992324F488279927821B930B5D
:101E040070E0651B71099B0122F422273327261BEE
:061E1400370B820F089558
:101E1A0057FD9058440F551F59F05F3F71F0479591
:101E2A00880F97FB991F61F09F3F79F08795089576
:101E3A00121613061406551FF2CF4695F1DF08C095
:101E4A00161617061806991FF1CF869571056105B2
:041E5A00089408954B
:101E5E001F920F920FB60F9211248F939F939BB3E5
:101E6E0080E489278BBB8091E6019091E701019672
:101E7E009093E7018093E6019F918F910F900FBE93
:061E8E000F901F90189553
:101E94001F920F920FB60F9211248F939F939BB3AF
:101EA40080E189278BBB8091E4019091E501019643
:101EB4009093E5018093E4019F918F910F900FBE61
:061EC4000F901F9018951D
:101ECA00982F990F890F982F990F690F90E080E04A
:101EDA0009C0E92FF0E0E156FE4F2081621301C0EC
:0E1EEA0081E09F5F2091EE01921798F308951A
:101EF80097FB072E16F4009407D077FD09D00E94AF
:101F0800900F07FC05D03EF4909581959F4F08955A
:081F1800709561957F4F08955B
:101F2000AA1BBB1B51E107C0AA1FBB1FA617B707FF
:101F300010F0A61BB70B881F991F5A95A9F780951B
:081F40009095BC01CD0108954C
:101F4800092E0394000C11F4882352F0BB0F40F4BF
:101F5800BF2B11F460FF04C06F5F7F4F8F4F9F4FFF
:021F68000895DA
:101F6A00A29FB001B39FC001A39F700D811D1124D0
:0E1F7A00911DB29F700D811D1124911D0895BF
:101F8800E091EE0191E09E0F9093EE01F0E0E156B2
:0C1F9800FE4F808390E00E94D80C08955A
:101FA4009091D101981729F08BB38D7F8BBB80E082
:061FB400089581E008958C
:101FBA00EC010E9455100E945410CE010E94561046
:061FCA00CE010E9452103E
:101FD00082B3816082BB85E08A95F1F782B38E7F00
:041FE00082BB089523
:101FE4001F920F920FB60F9211240F900FBE0F90F5
:041FF4001F9018958D
:101FF8001F920F920FB60F9211240F900FBE0F90E1
:042008001F90189578
:10200C0089B382958695869583708093EC010895AB
:10201C0089B3807382958F70825E8093920008954D
:10202C008091EC0190E00E9463000E94E10D089504
:0E203C0000240A9416161706180609060895C1
:0E204A0000240A9412161306140605060895C3
:0E205800E894BB2766277727CB0197F90895F8
:0C20660097F99F6780E870E060E0089543
:0A2072000E94C60E08F481E00895F4
:0A207C000E94C60E08F48FEF0895CD
:082086000E948F0A0C94A40FC4
:08208E000E94690B0C94A40FE1
:062096009FEF80EC0895AD
:04209C000C940000A0
:0420A000860F08950A
:0420A4000E94610035
:0220A800089599
:0220AA00089597
:0220AC00089595
:0420AE009A999D421C
:0420B20000009F4249
:0420B600ABAAEA41A6
:0220BA002800FC
:0220BC00E70338
:0220BE00080018
:0120C000011E
:0120C100011D
:00000001FF
