:100000000C9430000C94F9000C94F9000C94F90055
:100010000C94F9000C945A000C94F9000C94F9001B
:100020000C94F9000C94F9000C94F9000C94F9006C
:100030000C94F9000C94F9000C94F9000C94F9005C
:100040000C94F9000C94F9000C94F9000C94F9004C
:100050000C94F900006000668000660067000200F2
:1000600011241FBECFE5D4E0DEBFCDBFE4E5F0E054
:1000700040E017C0B591A59135912591059107FDF7
:100080000CC095918591EF01F92FE82F05900D9205
:10009000A217B307D9F7FE0104C01D92A217B30738
:1000A000E1F7E036F40731F70E94C1000C94E40058
:0400B000F894FFCFF2
:1000B4001F920F920FB60F9211242F933F934F93D9
:1000C4005F936F937F938F939F93AF93BF93EF93BC
:1000D400FF9380916600882379F086B597B5909355
:1000E4006500809364008EB58F7B8EBD8EB5816074
:1000F4008EBD1092660032C086B597B590936300AA
:10010400809362008EB580648EBD81E0809366002A
:100114008EB58E7F8EBD1DBC1CBC209162003091BB
:100124006300AFE9B6E40E94D500929582958F7082
:1001340089279F70892790936100809360000E94B3
:10014400EF008091600090916100449720F48BB39C
:1001540081608BBB03C08BB38E7F8BBBFF91EF9110
:10016400BF91AF919F918F917F916F915F914F91CB
:0E0174003F912F910F900FBE0F901F90189586
:100182008AB389608ABB81B3816081BB81B38F7B73
:1001920081BB1FBC8EB580648EBD89B7806289BF6A
:0801A20078940E94EF00FFCFEA
:1001AA00A29FB001B39FC001A39F700D811D1124AE
:0E01BA00911DB29F700D811D1124911D08959D
:1001C800EC010E94FE000E94FD00CE010E94FF008B
:0601D800CE010E94FB00B5
:1001DE0082B3816082BB85E08A95F1F782B38E7F10
:0401EE0082BB089533
:0401F2000C94000069
:0401F6000E9458000B
:0201FA00089566
:0201FC00089564
:0201FE00089562
:0102000001FC
:00000001FF
