:100000000C9430000C94B3020C94CD020C944E036B
:100010000C9429020C944E030C944E030C944E0342
:100020000C944E030C94F0010C944E030C944E036C
:100030000C944E030C944E030C944E030C944E03FC
:100040000C944E030C944E030C949D010C944E039F
:100050000C944E03006000680006AA0068006B80E4
:1000600011241FBECFE5D4E0DEBFCDBFE4E5F0E054
:1000700040E017C0B591A59135912591059107FDF7
:100080000CC095918591EF01F92FE82F05900D9205
:10009000A217B307D9F7FE0104C01D92A217B30738
:1000A000E1F7E036F40731F70E94C9000C9413031E
:0400B000F894FFCFF2
:1000B40010C00E942F0358F00E94280340F029F436
:1000C4005F3F29F00C943D0351110C9437030C94B9
:1000D4004B030E94910268F39923B1F3552391F3E2
:1000E400951B550BBB27AA2762177307840738F0A3
:1000F4009F5F5F4F220F331F441FAA1FA9F335D000
:100104000E2E3AF0E0E832D091505040E695001CB3
:10011400CAF72BD0FE2F29D0660F771F881FBB1F6D
:10012400261737074807AB07B0E809F0BB0B802D4B
:10013400BF01FF2793585F4F3AF09E3F510578F077
:100144000C943D030C9437035F3FE4F3983ED4F3DF
:10015400869577956795B795F7959F5FC9F7880F4B
:10016400911D9695879597F90895E1E0660F771F9D
:10017400881FBB1F621773078407BA0720F0621B2E
:0E018400730B840BBA0BEE1F88F7E0950895FD
:100192008FEF8ABB87B3836187BB87B38B7F87BBB4
:1001A20081B3816081BB81B38B7F81BB81B3877F48
:1001B20081BB1BBA87B3886087BB81B3806881BB70
:1001C20088E683BF85BD81E489BF20E030E048EC4A
:1001D20052E4609164007091650080916600909194
:1001E20067000E94430320E030E04FE753E40E949F
:1001F20047030E9462026CBF20E030E048EC52E408
:100202006091600070916100809162009091630042
:100212000E94430320E030E04FE753E40E9447038B
:100222000E94620263BD8BB780648BBF85B7836017
:1002320085BF1FBC8BB780688BBF85B78A6085BFBF
:1002420084B7806484BF8BB780628BBF789483B796
:10025200816083BF85B5816085BD0E941E030E94B7
:040262000703FDCFC2
:100266000FC00E94280338F00E942F0320F0952328
:1002760011F00C943D030C944B0311240C9437039A
:100286000E94910270F3959FC1F3950F50E0551FA0
:10029600629FF001729FBB27F00DB11D639FAA27D5
:1002A600F00DB11DAA1F649F6627B00DA11D661F24
:1002B600829F2227B00DA11D621F739FB00DA11D45
:1002C600621F839FA00D611D221F749F3327A00DFF
:1002D600611D231F849F600D211D822F762F6A2F9B
:1002E60011249F5750409AF0F1F088234AF0EE0F00
:1002F600FF1FBB1F661F771F881F91505040A9F72D
:100306009E3F510580F00C943D030C9437035F3FEC
:10031600E4F3983ED4F3869577956795B795F79568
:10032600E7959F5FC1F7FE2B880F911D96958795E0
:0403360097F9089596
:10033A001F920F920FB60F9211242F933F934F9350
:10034A005F936F937F938F939F93AF93BF93EF9333
:10035A00FF9380916A00813019F51EBC2CB53DB51A
:10036A00AFE9B6E40E94F802929582958F708927C8
:10037A009F70892790936900809368001DBC1CBCFC
:10038A008091680090916900449718F48BB381605A
:10039A008BBB10926A000E941E038BB38E7F8BBBAD
:1003AA0080916A00811106C08EB581608EBD81E0A0
:1003BA0080936A00FF91EF91BF91AF919F918F91C6
:1003CA007F916F915F914F913F912F910F900FBE47
:0603DA000F901F90189522
:1003E0001F920F920FB60F9211242F933F934F93AA
:1003F0005F936F937F938F939F93AF93BF93EF938D
:10040000FF9320E030E048EC52E46091640070918A
:10041000650080916600909167000E94430320E090
:1004200030E04FE753E40E9447030E9462026CBF32
:10043000FF91EF91BF91AF919F918F917F916F91BC
:100440005F914F913F912F910F900FBE0F901F9092
:020450001895FD
:100452001F920F920FB60F9211242F933F934F9337
:100462005F936F937F938F939F93AF93BF93EF931A
:10047200FF9320E030E048EC52E46091600070911C
:10048200610080916200909163000E94430320E02A
:1004920030E04FE753E40E9447030E94620263BDCB
:1004A200FF91EF91BF91AF919F918F917F916F914A
:1004B2005F914F913F912F910F900FBE0F901F9020
:0204C20018958B
:1004C4000E94990288F09F5798F0B92F9927B75145
:1004D400B0F0E1F0660F771F881F991F1AF0BA95E4
:1004E400C9F714C0B13091F00E943603B1E0089509
:1004F4000C943603672F782F8827B85F39F0B93FFB
:10050400CCF3869577956795B395D9F73EF4909596
:0E0514008095709561957F4F8F4F9F4F089592
:1005220057FD9058440F551F59F05F3F71F04795A2
:10053200880F97FB991F61F09F3F79F08795089587
:10054200121613061406551FF2CF4695F1DF08C0A6
:10055200161617061806991FF1CF869571056105C3
:04056200089408955C
:100566001F920F920FB60F9211248F939F938BB306
:1005760080648BBB83EC99E00197F1F700C0000023
:100586008BB38F7B8BBB9F918F910F900FBE0F907C
:040596001F90189505
:10059A001F920F920FB60F9211248F939F938BB3D2
:1005AA0080618BBB83EC99E00197F1F700C00000F2
:1005BA008BB38F7E8BBB9F918F910F900FBE0F9045
:0405CA001F901895D1
:1005CE00092E0394000C11F4882352F0BB0F40F453
:1005DE00BF2B11F460FF04C06F5F7F4F8F4F9F4F93
:0205EE0008956E
:1005F000A29FB001B39FC001A39F700D811D112464
:0E060000911DB29F700D811D1124911D089552
:10060E0090E007C088B3816088BB88B3806188BBE7
:08061E009F5F9436B8F30895C4
:10062600EC010E9453030E945203CE010E94540320
:06063600CE010E945003FA
:10063C0082B3816082BB85E08A95F1F782B38E7FAD
:04064C0082BB0895D0
:0E06500000240A9416161706180609060895C7
:0E065E0000240A9412161306140605060895C9
:0E066C00E894BB2766277727CB0197F90895FE
:0C067A0097F99F6780E870E060E0089549
:080686000E945A000C94E702E7
:08068E000E9433010C94E70205
:060696009FEF80EC0895C7
:04069C000C940000BA
:0406A0000E9458005C
:0206A4000895B7
:0206A6000895B5
:0206A8000895B3
:0406AA000000964274
:0406AE000000944272
:00000001FF
