:100000000C9430000C9476020C9491020C941B0317
:100010000C94EB020C941B030C941B030C941B0319
:100020000C941B030C94E1020C941B030C941B0313
:100030000C941B030C941B030C941B030C941B03C8
:100040000C941B030C941B030C94C9010C941B030C
:100050000C941B0300600068000644006800708078
:1000600011241FBECFE5D4E0DEBFCDBFE4E5F0E054
:1000700040E017C0B591A59135912591059107FDF7
:100080000CC095918591EF01F92FE82F05900D9205
:10009000A217B307D9F7FE0104C01D92A217B30738
:1000A000E1F7E036F40731F70E945A000C94CC02D5
:0400B000F894FFCFF2
:1000B4008FEF8ABB8AB38B7F8ABB87B3836187BB8D
:1000C40087B38B7F87BB81B3816081BB81B38B7F17
:1000D40081BB81B3877F81BB1BBA87B3886087BB31
:1000E40081B3806881BB88E683BF85BD81E489BF15
:1000F40020E030E048EC52E46091640070916500C7
:1001040080916600909167000E94100320E030E027
:100114004FE753E40E9414030E9425026CBF20E0C1
:1001240030E048EC52E4609160007091610080918D
:100134006200909163000E94100320E030E04FE7DA
:1001440053E40E9414030E94250263BD8BB78064AC
:100154008BBF85B7816085BF1FBC8BB780688BBFA1
:1001640085B78A6085BF84B7806484BF8BB780629B
:100174008BBF789483B7816083BF85B5816085BD6B
:100184008BB38BBB8BB381608BBB0E94D7028091F6
:100194006A0090916B008135910534F48BB38BBB6D
:1001A40088B3806188BB05C08BB38BBB88B38F7E5B
:1001B40088BB8091680090916900813591053CF479
:1001C4008BB381608BBB88B3816088BBE0CF8BB37A
:0C01D4008E7F8BBB88B38E7F88BBD9CF99
:1001E00010C00E94FC0258F00E94F50240F029F471
:1001F0005F3F29F00C940A0351110C9404030C94F2
:1002000018030E94540268F39923B1F3552391F324
:10021000951B550BBB27AA2762177307840738F075
:100220009F5F5F4F220F331F441FAA1FA9F335D0D2
:100230000E2E3AF0E0E832D091505040E695001C86
:10024000CAF72BD0FE2F29D0660F771F881FBB1F40
:10025000261737074807AB07B0E809F0BB0B802D1E
:10026000BF01FF2793585F4F3AF09E3F510578F04A
:100270000C940A030C9404035F3FE4F3983ED4F318
:10028000869577956795B795F7959F5FC9F7880F1E
:10029000911D9695879597F90895E1E0660F771F70
:1002A000881FBB1F621773078407BA0720F0621B01
:0E02B000730B840BBA0BEE1F88F7E0950895D0
:1002BE000FC00E94F50238F00E94FC0220F0952338
:1002CE0011F00C940A030C94180311240C940403DB
:1002DE000E94540270F3959FC1F3950F50E0551F85
:1002EE00629FF001729FBB27F00DB11D639FAA277D
:1002FE00F00DB11DAA1F649F6627B00DA11D661FCC
:10030E00829F2227B00DA11D621F739FB00DA11DEC
:10031E00621F839FA00D611D221F749F3327A00DA6
:10032E00611D231F849F600D211D822F762F6A2F42
:10033E0011249F5750409AF0F1F088234AF0EE0FA7
:10034E00FF1FBB1F661F771F881F91505040A9F7D4
:10035E009E3F510580F00C940A030C9404035F3FFA
:10036E00E4F3983ED4F3869577956795B795F79510
:10037E00E7959F5FC1F7FE2B880F911D9695879588
:04038E0097F908953E
:100392001F920F920FB60F9211242F933F934F93F8
:1003A2005F936F937F938F939F93AF93BF93EF93DB
:1003B200FF9380916C0090916D00019729F51EBC0E
:1003C2002CB53DB5AFE9B6E40E94BD029295829587
:1003D2008F7089279F70892790936F0080936E009A
:1003E2001DBC1CBC80916E0090916F000A9718F49E
:1003F2008BB381608BBB10926D0010926C000E94D7
:10040200D7028BB38E7F8BBB80916C0090916D0075
:10041200892B49F48EB581608EBD81E090E0909386
:100422006D0080936C00FF91EF91BF91AF919F910E
:100432008F917F916F915F914F913F912F910F908B
:080442000FBE0F901F901895EA
:10044A000E945C0288F09F5798F0B92F9927B751FC
:10045A00B0F0E1F0660F771F881F991F1AF0BA955E
:10046A00C9F714C0B13091F00E940303B1E00895B6
:10047A000C940303672F782F8827B85F39F0B93FA8
:10048A00CCF3869577956795B395D9F73EF4909511
:0E049A008095709561957F4F8F4F9F4F08950D
:1004A80057FD9058440F551F59F05F3F71F047951D
:1004B800880F97FB991F61F09F3F79F08795089502
:1004C800121613061406551FF2CF4695F1DF08C021
:1004D800161617061806991FF1CF8695710561053E
:0404E80008940895D7
:1004EC001F920F920FB60F9211248F939F939BB371
:1004FC0080E489278BBB80916A0090916B000196F8
:10050C0090936B0080936A009F918F910F900FBE18
:06051C000F901F901895DE
:100522001F920F920FB60F9211248F939F939BB33A
:1005320080E189278BBB80916800909169000196C8
:1005420090936900809368009F918F910F900FBEE6
:060552000F901F901895A8
:10055800092E0394000C11F4882352F0BB0F40F4C9
:10056800BF2B11F460FF04C06F5F7F4F8F4F9F4F09
:020578000895E4
:10057A00A29FB001B39FC001A39F700D811D1124DA
:0E058A00911DB29F700D811D1124911D0895C9
:10059800EC010E9420030E941F03CE010E94210348
:0605A800CE010E941D03BC
:1005AE0082B3816082BB85E08A95F1F782B38E7F3C
:0405BE0082BB08955F
:1005C2001F920F920FB60F9211240F900FBE0F9031
:0405D2001F901895C9
:1005D6001F920F920FB60F9211240F900FBE0F901D
:0405E6001F901895B5
:0E05EA0000240A94161617061806090608952E
:0E05F80000240A941216130614060506089530
:0E060600E894BB2766277727CB0197F9089564
:0C06140097F99F6780E870E060E00895AF
:080620000E94F0000C94AC02F2
:080628000E945F010C94AC027A
:060630009FEF80EC08952D
:040636000C94000020
:04063A000E945800C2
:02063E0008951D
:0206400008951B
:02064200089519
:0406440000009E42D2
:040648000000A042CC
:00000001FF
