:100000000C943A000C9411030C942C030C94B6033A
:100010000C9486030C94B4010C94B6030C94B603B0
:100020000C94B6030C947C030C94B6030C94B603A6
:100030000C94B6030C94B6030C94B6030C94B6035C
:100040000C94B6030C94B6030C94B6030C94B6034C
:100050000C94B6030060006800077A0068006C80AA
:10006000006C0070000782007000738000730074E1
:100070000007860011241FBECFE5D4E0DEBFCDBF50
:10008000E4E5F0E040E017C0B591A59135912591E8
:10009000059107FD0CC095918591EF01F92FE82F8F
:1000A00005900D92A217B307D9F7FE0104C01D9267
:1000B000A217B307E1F7E337F40731F70E946400B2
:0800C0000C946703F894FFCFD4
:1000C8008FEF8ABB8AB384608ABB87B3836187BB9F
:1000D80081B38F7B81BB81B3816081BB81B38B7F0F
:1000E80081BB81B3877F81BB87B3886087BB81B3BE
:1000F800806881BB88E683BF85BD81E489BF20E035
:1001080030E048EC52E460916400709165008091A1
:100118006600909167000E94AB0320E030E04FE753
:1001280053E40E94AF030E94C0026CBF20E030E09D
:1001380048EC52E460916000709161008091620027
:10014800909163000E94AB0320E030E04FE753E456
:100158000E94AF030E94C00263BD1FBC8EB58064BD
:100168008EBD89B7806289BF8BB7806C8BBF85B71E
:100178008B6085BF789483B7816083BF85B58160C4
:1001880085BD0E9472032FE38DE093E021508040EB
:100198009040E1F700C000000E948B020E94190203
:0E01A8000E948B020E9452020E948B02FFCF27
:1001B60010C00E94970358F00E94900340F029F463
:1001C6005F3F29F00C94A50351110C949F030C94E6
:1001D600B3030E94EF0268F39923B1F3552391F319
:1001E600951B550BBB27AA2762177307840738F0A0
:1001F6009F5F5F4F220F331F441FAA1FA9F335D0FD
:100206000E2E3AF0E0E832D091505040E695001CB0
:10021600CAF72BD0FE2F29D0660F771F881FBB1F6A
:10022600261737074807AB07B0E809F0BB0B802D48
:10023600BF01FF2793585F4F3AF09E3F510578F074
:100246000C94A5030C949F035F3FE4F3983ED4F30C
:10025600869577956795B795F7959F5FC9F7880F48
:10026600911D9695879597F90895E1E0660F771F9A
:10027600881FBB1F621773078407BA0720F0621B2B
:0E028600730B840BBA0BEE1F88F7E0950895FA
:100294000FC00E94900338F00E94970320F095232A
:1002A40011F00C94A5030C94B30311240C949F0334
:1002B4000E94EF0270F3959FC1F3950F50E0551F14
:1002C400629FF001729FBB27F00DB11D639FAA27A7
:1002D400F00DB11DAA1F649F6627B00DA11D661FF6
:1002E400829F2227B00DA11D621F739FB00DA11D17
:1002F400621F839FA00D611D221F749F3327A00DD1
:10030400611D231F849F600D211D822F762F6A2F6C
:1003140011249F5750409AF0F1F088234AF0EE0FD1
:10032400FF1FBB1F661F771F881F91505040A9F7FE
:100334009E3F510580F00C94A5030C949F035F3FEE
:10034400E4F3983ED4F3869577956795B795F7953A
:10035400E7959F5FC1F7FE2B880F911D96958795B2
:0403640097F9089568
:100368001F920F920FB60F9211242F933F934F9322
:100378005F936F937F938F939F93AF93BF93EF9305
:10038800FF9380917300882349F08EB58F7B8EBDD3
:100398008EB581608EBD1092730036C086B597B554
:1003A80090937100809370008EB580648EBD81E05B
:1003B800809373008EB58E7F8EBD1DBC1CBC2091B2
:1003C800700030917100AFE9B6E40E94580392952D
:1003D80082958F7089279F70892790936F008093EB
:1003E8006E000E94720320916E0030916F00809120
:1003F8006C0090916D002817390720F481E08093F4
:10040800720002C010927200FF91EF91BF91AF91FC
:100418009F918F917F916F915F914F913F912F9114
:0A0428000F900FBE0F901F90189563
:1004320010926B0010926A0010926900109268008C
:1004420087EA91E60197F1F700C0000006C088B381
:10045200816088BB8BB384608BBB80916A00909172
:100462006B000B9734F480916800909169000B97B0
:1004720074F388B38E7F88BB8BB38B7F8BBB109258
:100482006B0010926A0010926900109268009FE956
:1004920026E881E0915020408040E1F700C0000052
:0204A2000895BB
:1004A40010926B0010926A0010926900109268001A
:1004B40087EA91E60197F1F700C0000006C088B30F
:1004C400806188BB88B3826088BB80916A00909108
:1004D4006B000B9734F480916800909169000B973E
:1004E40074F388B38F7E88BB88B38D7F88BB1092EA
:1004F4006B0010926A0010926900109268009FE9E4
:1005040026E881E0915020408040E1F700C00000DF
:02051400089548
:1005160010926B0010926A001092690010926800A7
:1005260016C08091720081110CC088B3816088BBAF
:1005360088B3806188BB87EA91E60197F1F700C02E
:10054600000088B38E7F88BB88B38F7E88BB80917E
:100556006A0090916B00899734F4809168009091BD
:1005660069008997F4F29FE926E881E091502040DE
:0A0576008040E1F700C00000089586
:100580000E94F70288F09F5798F0B92F9927B7512A
:10059000B0F0E1F0660F771F881F991F1AF0BA9527
:1005A000C9F714C0B13091F00E949E03B1E00895E4
:1005B0000C949E03672F782F8827B85F39F0B93FD6
:1005C000CCF3869577956795B395D9F73EF49095DA
:0E05D0008095709561957F4F8F4F9F4F0895D6
:1005DE0057FD9058440F551F59F05F3F71F04795E6
:1005EE00880F97FB991F61F09F3F79F087950895CB
:1005FE00121613061406551FF2CF4695F1DF08C0EA
:10060E00161617061806991FF1CF86957105610506
:04061E00089408959F
:100622001F920F920FB60F9211248F939F939BB339
:1006320080E489278BBB80916A0090916B000196C0
:1006420090936B0080936A009F918F910F900FBEE1
:060652000F901F901895A7
:100658001F920F920FB60F9211248F939F939BB303
:1006680080E189278BBB8091680090916900019691
:1006780090936900809368009F918F910F900FBEAF
:060688000F901F90189571
:10068E00092E0394000C11F4882352F0BB0F40F492
:10069E00BF2B11F460FF04C06F5F7F4F8F4F9F4FD2
:0206AE000895AD
:1006B000A29FB001B39FC001A39F700D811D1124A3
:0E06C000911DB29F700D811D1124911D089592
:1006CE00EC010E94BB030E94BA03CE010E94BC0340
:0606DE00CE010E94B803EA
:1006E40082B3816082BB85E08A95F1F782B38E7F05
:0406F40082BB089528
:1006F8001F920F920FB60F9211240F900FBE0F90FA
:040708001F90189591
:10070C001F920F920FB60F9211240F900FBE0F90E5
:04071C001F9018957D
:0E07200000240A9416161706180609060895F6
:0E072E0000240A9412161306140605060895F8
:0E073C00E894BB2766277727CB0197F908952D
:0C074A0097F99F6780E870E060E0089578
:080756000E94DB000C94470334
:08075E000E944A010C944703BC
:060766009FEF80EC0895F6
:04076C000C940000E9
:040770000E94620081
:020774000895E6
:020776000895E4
:020778000895E2
:04077A0000008A42AF
:04077E0000008C42A9
:02078200140061
:02078400E70389
:010786000171
:00000001FF
